:020000041000EA
:10100000500500201D100010000000009D10001071
:101010000018040000010000000000801149124A7D
:10102000124B00F018F8124880471249124A134B2D
:1010300000F011F81249134A134B00F00CF8134951
:10104000134A0020521A02DD043A8850FCDC114891
:101050008047114880479B1A03DD043BC858D05095
:10106000FBDC70479C3000100C0000205001002079
:10107000A1100010E031001050050020B006002043
:1010800040330010B0060020B0060020B00600205B
:10109000E8320020912F0010E92E0010FEE700003A
:1010A00080B500AF01F006FC01F052FCBD4680BDEA
:1010B00080B500AF2A4B1A68FF231B0213401A0A9F
:1010C000284B1A60274B1B68002B37D0244B1B681A
:1010D000FF221A40244B1A60214BDB690322134084
:1010E0001A02214B1B681A431F4B1A601C4BDA690A
:1010F00080239B0013400ED11A4B1B689A021A4B97
:101100001B68D3181948191C00F0D6FB031C1A01E0
:10111000174B1A6021E000F02FF8031C9901114BC6
:101120001B689A02104B1B68D318081C191C00F08E
:10113000C3FB031C1A010E4B1A600EE0084BDA6960
:1011400080239B00134003D1094B0A4A1A6004E034
:1011500000F012F8021C064B1A60BD4680BDC04666
:1011600000030140B0060020B406002000001BB7B9
:10117000FC3F0020006CDC0280B500AF014B181C66
:10118000BD4680BD002D310190B585B000AFF8603F
:101190007A600B23FB180A1C1A700B23FB181B78B0
:1011A0009B08DBB2181C0B23FB181B789B08DBB2D7
:1011B0001A1CFB6804329200D3580B22BA1812781A
:1011C00003210A40D200111CFC228A40D2431A405B
:1011D000111CFB68021D9200D150FB685B6F0B2253
:1011E000BA1812785200111C03228A40D2431A40C6
:1011F000FB685A670B23FB181B78DB08DBB2181C53
:101200000B23FB181B78DB08DBB21A1CFB681032BF
:101210009200D3580B22BA18127807210A40920084
:10122000111C04228A40D2431A40111CFB68021C84
:1012300010329200D1500B23FB181B78DB08DBB275
:10124000181C0B23FB181B78DB08DBB21A1CFB688D
:1012500010329200D2587B685B781C1C0B23FB1861
:101260001B7807210B409B009C40231C1A43111C38
:10127000FB68021C10329200D150FB68204A934256
:101280000CD1FB681B6E0B22BA1812780121914019
:101290000A1CD2431A40FB681A660DE07B681B7873
:1012A000DBB25BB2002B07DA7B685A680B23FB18B2
:1012B0001B789A40FB685A600B23FB181B789B082D
:1012C000DBB2181C0B23FB181B789B08DBB21A1C23
:1012D000FB6804329200D2587B681B781C1C0B23DD
:1012E000FB181B7803210B40DB009C40231C1A4396
:1012F000111CFB68021D9200D150BD4605B090BD87
:101300000002044080B500AF024BC3225A62BD46C2
:1013100080BDC0460000014080B500AF054BC02233
:101320005A62C046034B5B6A04221340FAD1BD46A1
:1013300080BDC0460000014080B586B000AF786037
:10134000FFF7EAFF7B689B79302B4CD0FFF714FF47
:10135000021E454B9A4209D9444A44499023CB5A2C
:101360009BB240210B4399B29023D1523F4A3F494F
:101370009023CB5A9BB29BB2191C322399430B1C6E
:1013800099B27B689B799BB20B439BB299B2902335
:10139000D152374B02229A62364B364A526936494D
:1013A0000A405A6114237B6100E0C0467B69013B1F
:1013B0007B617B69002BF8D12E4B2E4A526980212C
:1013C00089040A435A612D4B3B6100E0C0463B69EA
:1013D000013B3B613B69002BF8D1254B1B6A022284
:1013E0001340D6D109E0214A20499023CB5A9BB221
:1013F00030210B4399B29023D1521C4A7B68DB7990
:1014000099B28C23D1527B68DB79002B09D11C4B1C
:10141000FB6000E0C046FB68013BFB60FB68002B03
:10142000F8D1144B134AD26916490A407968898861
:101430000A43DA610F4A0F4B1B68134919407B6856
:10144000DB6819437B689B680B431360FFF75AFF07
:101450007B689B781A1C7B681B88101C191C00F089
:101460002FF8BD4606B080BD002D310100100140AF
:101470003800014000030140FFFFFFFDC4090000E8
:10148000A02E6300FFFDFFFFFFFFF0FF80B582B0DD
:1014900000AF7860FFF740FF084B084A11697A688F
:1014A0000A431A61C046054B1A688023DB051340C6
:1014B000F9D1FFF727FFBD4602B080BD0003014010
:1014C00080B584B000AF78603960FFF725FF274B07
:1014D0001A68FF231B0213401B0AFB60234B234A9D
:1014E000D26903218A43111C3A68120A0A43DA615D
:1014F0001E4B1E4A12681E4911403A68FF200240E6
:101500000A431C490A431A60C046184B1A688023D4
:10151000DB051340F9D1FA687B689A4206D8FA686D
:101520007B68101C191C00F053F805E0FA687B6812
:10153000101C191C00F022F80C4B0C4A12680E49C2
:1015400011407A6812020A430A490A431A60C046E7
:10155000064B1A688023DB051340F9D1FFF7D2FE52
:10156000FFF7A6FDBD4604B080BDC04600030140A4
:1015700000FF0FC00000F03FFF000FC080B582B039
:1015800000AF7860396014E07B689B087B600D4B8E
:101590000C4A12680C4911407A6812020A430B493E
:1015A0000A431A60C046074B1A688023DB051340C4
:1015B000F9D13B689A007B689A42E5D3BD4602B0F8
:1015C00080BDC04600030140FF000FC00000F03F97
:1015D00080B582B000AF7860396019E07B68002B7D
:1015E00001D101237B607B689B007B600C4B0C4A24
:1015F00012680C4911407A6812020A430A490A43E8
:101600001A60C046064B1A688023DB051340F9D1E7
:101610007B689A003B689A42E0D3BD4602B080BD29
:1016200000030140FF000FC00000F03F80B582B012
:1016300000AF021CFB1D1A703B1D0A1C1A803B1DCB
:101640003A1D128803210A401A80FB1D1B780F2BBC
:1016500013D8184B174AD26EF91D09784900081C97
:1016600003218140C9430A40391D0988F81D0078CB
:10167000400081400A43DA6618E0FB1DFA1D12782B
:101680000F210A401A700B4B0A4A126FF91D097894
:101690004900081C03218140C9430A40391D0988BB
:1016A000F81D0078400081400A431A67BD4602B029
:1016B00080BDC0460000014080B582B000AF7860B8
:1016C0007B68DB68802252001A437B68DA60BD4683
:1016D00002B080BD80B582B000AF78607B68094AF7
:1016E000934203D10420FFF7D1FE08E07B68064A4D
:1016F000934204D180239B02181CFFF7C7FEBD460E
:1017000002B080BD000004480040044880B582B0AB
:1017100000AF78607B68181CFFF7DCFFBD4602B0A5
:1017200080BDC04680B584B000AF78600A1CFB1C49
:101730001A707B68181CFFF7E9FF7B68181CFFF71D
:10174000BBFF7B681B68FB60FB68074A1340FB60BC
:10175000FB1C1B789B03FA681343FB607B68FA68E9
:101760001A60BD4604B080BDFF3FFFFF80B582B068
:1017700000AF786039603B681A687B685A613B68E3
:101780005B799B06DB0FDBB21A057B685A603B680E
:101790001B791B071B0FDBB21A1C7B685A623B6864
:1017A0005B791B071B0FDBB21A1C7B681A623B6854
:1017B0005B79DB06DB0FDBB21A1C7B689A613B6846
:1017C0001B791B061B0FDBB21A1C7B68DA62BD4655
:1017D00002B080BD80B586B000AF7860081C111CD7
:1017E000FB1C021C1A70BB1C0A1C1A707B68A82206
:1017F0009B58FB60FB1C1B78092B1AD89A001A4BCC
:10180000D3181B689F4603233B6100237B6116E0CE
:101810000C233B6102237B6111E0C0239B003B61F1
:1018200008237B610BE0C0231B013B610A237B6122
:1018300005E0C0239B013B610C237B61C0463B69F3
:10184000DA43FB681340FB60BB1C1A787B699A4043
:10185000131CFA681343FB607B68A821FA685A508E
:10186000BD4606B080BDC046DC2F001080B582B0FA
:1018700000AF7860081C111CFB1C021C1A70BB1CFA
:101880000A1C1A707B685B6FFA1C12785200111CDC
:1018900003228A40D2431A407B685A677B685A6F9A
:1018A000BB1C1B78F91C097849008B401A437B68E4
:1018B0005A67BD4602B080BD80B588B000AF786081
:1018C0003960EFF310837B617B693B6172B63B69E2
:1018D000FB610C4B04225A630A4B7A681A62094B6B
:1018E0003A685A62074B9B6ABB61FB69FB60FB6805
:1018F000BB60BB6883F31088BB69181CBD4608B089
:1019000080BDC0460000034080B588B000AF78605D
:101910003960EFF310837B617B693B6172B63B6991
:10192000FB610C4B00225A630A4B7A681A62094B1E
:101930003A685A62074B9B6ABB61FB69FB60FB68B4
:10194000BB60BB6883F31088BB69181CBD4608B038
:1019500080BDC04600000340F0B58DB000AF786098
:101960003960EFF310827A617A693A6172B63A6946
:10197000FA62154A00215163134A79681162124ACA
:1019800039685162104AD26A3A6200227A620E4A7B
:10199000926ABA610022FA61FA6AFA60FA68BA6079
:1019A000BA6882F310883A6A14000022131CBA69DC
:1019B0001A43151CFA692243161C2B1C341C181CD4
:1019C000211CBD460DB0F0BD0000034080B584B0C1
:1019D00000AF786039603B1C1B785B075B0FDBB2A4
:1019E0001A1CBB1C1B889B059B0D9BB21B0413433D
:1019F000FB607A68F8235B00F968D150FB1C1B7808
:101A0000DB06DB0FDBB21A07FB1C1B781B079B0FE7
:101A1000DBB29B061A43FB1C1B789B06DB0FDBB279
:101A20005B071343FB60FB1C1B785B06DB0FDBB221
:101A30009B07FA681343FB607A68F8235B00D2586F
:101A4000FB681343802212061A43111C7A68F8239C
:101A50005B00D150BD4604B080BDC04680B582B0A9
:101A600000AF78607B6884229B588022D2041A439E
:101A70007B6884215A50BD4602B080BD80B582B0DB
:101A800000AF78607B6884229B58044A1A407B68C8
:101A900084215A50BD4602B080BDC046FFFFFFFB07
:101AA00080B500AF034BFF221A600120FFF7EEFC68
:101AB000BD4680BD0005014080B582B000AF7860B2
:101AC0003960FFF7EDFF3B685A697B681A603B6835
:101AD0005B68802212021A437B6880215A503B685F
:101AE0009A687B68A0215A503B68DA687B68A42119
:101AF0005A503B6819697A68A0239B00D1503B6813
:101B00001A687B68B8215A50BD4602B080BDC046F5
:101B100080B584B000AFF860B9603B60FB1D1A70FF
:101B2000FB1D1B78002B09D1BB680A4A1340191C06
:101B3000FB683A6828329200D15008E0BB68064A38
:101B40001340191CFB683A6828329200D150BD46F8
:101B500004B080BD1F07000000001F0780B584B0DF
:101B600000AF78607B6880229B58802212061A435F
:101B70007B6880215A500F23FB1800221A701DE049
:101B80000F23FB181A78114B9200D358BB60BB6827
:101B900080229A58C0239B02134008D000E0C04620
:101BA000BB6880229A5880235B051340F7D10F232E
:101BB000FB181A780F23FB1801321A700F23FB1839
:101BC0001B78012BDCD9BD4604B080BD0430001069
:101BD00080B584B000AF78600A1CFB1C1A70FB1C37
:101BE0001B78032B04D9FB1C1B78043BFB6002E031
:101BF000FB1C1B78FB607A68A0235B00D3580F2284
:101C00009343191C7A68A0235B00D1507A68A02303
:101C10005B00D258FB681A43111C7A68A0235B0052
:101C2000D150BD4604B080BD80B582B000AF7860B1
:101C300039607A683B685B68101C191C002200231D
:101C400000F030F87A683B685B68101C191C0122B0
:101C5000002300F027F87A683B689B68101C191C69
:101C60000022012300F01EF87A683B689B68101C74
:101C7000191C0122012300F015F83B681A697B68E2
:101C800080215A503B68DA687B68B8215A507A68DC
:101C90003B681B68101C191CFFF798FEBD4602B07C
:101CA00080BDC04680B58CB000AFF860B9603B60C5
:101CB000FB1D1A70FB1D1B78002B19D10823FB623A
:101CC000E023DB007B620023BB621F233B6208230F
:101CD000FB181B78DB06DB0EDBB2FB610923FB186C
:101CE0001B785B075B0FDAB21B23FB181A7019E035
:101CF0001823FB62E023DB047B621023BB62F82322
:101D00005B033B620A23FB181B78DB06DB0EDBB2AE
:101D1000FB610B23FB181B785B075B0FDAB21B23FD
:101D2000FB181A70FB683A6828329200D3587B611E
:101D30007B6ADA437B6913407B611B23FB181A78AB
:101D4000FB6A9A40131C7A6913437B613B6ADA434E
:101D50007B6913407B61BB6AFA699A40131C7A69FC
:101D600013437B61FB683A68283292007969D1504D
:101D7000BD460CB080BDC04680B584B000AF786071
:101D80000A1CFB1C1A707B6880229B58FB60FB6856
:101D900003229343FB60FB1C1B78FA681343FB6030
:101DA0007B688021FA685A50BD4604B080BDC046A9
:101DB00080B582B000AF78600A1CFB1C1A70FB1C57
:101DC0001B78002B08D17B6880229B5801221A4384
:101DD0007B6880215A500BE0FB1C1B78012B07D13C
:101DE0007B6884229B5801221A437B6884215A50C5
:101DF000BD4602B080BDC04680B586B000AF7860F9
:101E000039601723FB1800221A700FE01723FB1804
:101E10001A784A4B9200D358181CFFF72FFE17234D
:101E2000FB181A781723FB1801321A701723FB18B6
:101E30001B78012BEAD900233B613B681B78032206
:101E40001340DBB2002B02D080231B013B61172320
:101E5000FB1800221A7029E01723FB181A78374B59
:101E60009200D35884229B58FB60FB68344A13408D
:101E7000FB603B681B781B079B0FDBB21B02FA68F9
:101E80001343FB60FA683B691343FB601723FB189D
:101E90001A782A4B9200D3588421FA685A50172393
:101EA000FB181A781723FB1801321A701723FB1836
:101EB0001B78012BD0D93B685B68224A1A43111C5E
:101EC0007A6880239B00D1503B689B6801221A43AB
:101ED000111C7A6881239B00D1503B681B78032238
:101EE0001340DBB2022B0BD17A6881239B00D358BD
:101EF000802252021A43111C7A6881239B00D15020
:101F00001723FB1800221A700FE01723FB181A780A
:101F10000A4B9200D358181CFFF7A0FD1723FB189B
:101F20001A781723FB1801321A701723FB181B7835
:101F3000012BEAD9BD4606B080BDC0460430001072
:101F4000FFFCFFFF0080800080B588B000AFF86024
:101F5000B9607A607B681B7BBB61FB6888229B58F9
:101F60007B61BB6801229A40131CDA437B691340F2
:101F70007B61BB68BA699A40131C7A6913437B6121
:101F8000FB6888217A695A507B685B7B5BB2002BC7
:101F90002ADB0023FB61BB68012B0AD10823FB610C
:101FA000FB68B0229B581E4A1A40FB68B0215A5069
:101FB0000DE0BB68002B0AD10023FB61FB68B02257
:101FC0009B581F2293431A1CFB68B0215A50FB6890
:101FD000B0229B587A68527B51B2FA6991400A1C30
:101FE0001A43FB68B0215A50FB68C8229A587B6894
:101FF0005B681A43FB68C8215A50FB68D0229A5884
:102000007B689B681A43FB68D0215A507B6819682B
:10201000FB68BA6880329200D150BD4608B080BDDE
:10202000FFE0FFFF80B500AFBD4680BD90B589B031
:1020300000AF78600C23FB1800225A600C23FB18B9
:1020400000229A600C23FB1800221A600C23FB1854
:102050000022DA600023FB610EE07A68FB691B0155
:102060000421D3185B180C22BA1813CA13C31268C0
:102070001A60FB690133FB61FB690E4A9342ECDD98
:102080007B680D4A002199507B680C4A0949995098
:102090007B68AF2292001A607B68094A0C2179188C
:1020A0009B180A1C13CA13C312681A60BD4609B0F4
:1020B00090BDC046BB020000C82B0000C42B00002E
:1020C000CC2B000090B58DB000AF786039607B6894
:1020D000514A9B581C22B8187A681B010421D31856
:1020E0005A18031C13CA13C312681A600C23FA1877
:1020F0007B684A495B1813CB13C21B6813607B686B
:102100001B68FB620C23FB181C681C23FB181B6854
:10211000181CF96AFFF7F8FB031CE41A3B681B68FC
:10212000181CF96AFFF7F0FB031CE2180C23FB18DC
:102130001A600C23FB185C681C23FB185B68181CD6
:10214000F96AFFF7E1FB031CE41A3B685B68181CA3
:10215000F96AFFF7D9FB031CE2180C23FB185A603D
:102160000C23FB189C681C23FB189B68181CF96A3D
:10217000FFF7CAFB031CE41A3B689B68181CF96A4A
:10218000FFF7C2FB031CE2180C23FB189A600C2318
:10219000FB18DC681C23FB18DB68181CF96AFFF7C6
:1021A000B3FB031CE41A3B68DB68181CF96AFFF7F1
:1021B000ABFB031CE2180C23FB18DA607B68174AA0
:1021C0000C2179189B180A1C13CA13C312681A60D1
:1021D0007B68114A9B587A681B010421D3185B184D
:1021E0003A6813CA13C312681A607B680A4A9A587D
:1021F0007B680B495A507B68074A9B580133181C6F
:10220000F96AFFF7A9FB0B1C191C7B68024A99505D
:10221000BD460DB090BDC046C82B0000CC2B0000C1
:10222000C42B000090B587B000AF78607B68181CA5
:10223000FFF7FCFE0823FB1800225A600823FB1856
:1022400000229A600823FB1800221A600823FB185A
:102250000022DA607B68104A082179189B180A1C52
:1022600013CA13C312681A607B680C4A08217918D4
:102270009B180A1C13CA13C312681A607B68084AA9
:10228000082179189B180A1C13CA13C312681A6014
:10229000BD4607B090BDC046DC2B0000EC2B000013
:1022A000FC2B000080B584B000AF78600023FB6099
:1022B0000CE002E0FB680133FB60FB68064A9342D6
:1022C000F8DD0023FB607B68013B7B607B68002BB3
:1022D000EFD1BD4604B080BD0209000080B582B0D8
:1022E00000AF78600A1CFB1C1A707B68DA68FB1C64
:1022F0001B78012199400B1C1A437B68DA60BD46AC
:1023000002B080BD80B582B000AF78607B680122EA
:10231000DA60BD4602B080BD80B582B000AF7860A3
:102320007B6802221A61BD4602B080BD80B582B0D2
:1023300000AF78600A1CBB1C1A80BB1C1A887B6823
:102340005A63BD4602B080BD80B582B000AF7860F0
:102350000A1CBB1C1A80BB1C1A887B68DA63BD464A
:1023600002B080BD80B582B000AF786039607B6814
:102370003A681A61BD4602B080BDC04680B582B0E1
:1023800000AF78600A1CFB1C1A707B68A4229A5864
:10239000FB1C1B78012199400B1C1A437B68A4216C
:1023A0005A50BD4602B080BD80B582B000AF7860A3
:1023B0000A1CFB1C1A707B68B0229A58FB1C1B7805
:1023C000012199400B1C1A437B68B0215A50BD462D
:1023D00002B080BD90B585B000AF78600F23FB18C8
:1023E00000221A707B6826229B5C01225340DBB2DC
:1023F000002B0CD07B6821229B5C002B07D10F2384
:10240000FC187B68181C00F01BF8031C23700F23BA
:10241000FB181B78181CBD4605B090BD80B582B076
:1024200000AF78607B6821229B5C002B05D17B6824
:102430005B69181C0021FFF7B7FFBD4602B080BDE5
:1024400090B585B000AF78607B681B690F22BC181F
:10245000181C00F031F9031C23707B681B699A6813
:102460007B681B7E101C191CFFF738FF7B685A69BC
:102470007B68DB69101C191CFFF778F97B68181C56
:1024800000F030F87B6825229B5C002B0FD07B6826
:1024900059697B6820229B5C081C00211A1CFFF7ED
:1024A00099F97B685B69181C0021FFF767FF7B685F
:1024B0005B69181CFFF730FF7B68262201219954C5
:1024C0007B6824229B5C002B04D07B685B69181C12
:1024D000FFF718FF0F23FB181B78181CBD4605B02B
:1024E00090BDC04680B582B000AF78607B685A6905
:1024F0007B685B8C101C191CFFF718FF7B685B69FD
:10250000181C0021FFF720FF7B681B699A687B6815
:10251000DB68101C191CFFF725FFBD4602B080BD0B
:1025200080B582B000AF021CFB1D1A70FB1D1B782A
:102530007F2B09D8064BFA1D1278111C1F220A4066
:10254000012191400A1C1A60BD4602B080BDC04600
:1025500000E100E0B0B582B000AF021C3960FB1DA5
:102560001A70FB1D1B787F2B27D82D4CFB1D1B7869
:102570005BB29B082A49FA1D127852B29208C03207
:1025800092005258F91D0978081C03210140C90026
:10259000081CFF218140C94311403A689201FF2085
:1025A0000240F81D0078051C03202840C00082402E
:1025B0000A43C0339B001A512EE01A4CFB1D1B78B6
:1025C0001A1C0F231340083B9908164AFB1D1B7861
:1025D000181C0F230340083B9B0806339B00D318AD
:1025E0005B68FA1D1278101C03220240D200101CF6
:1025F000FF228240D2431A403B689B01FF200340E8
:10260000F81D0078051C03202840C00083401A43B1
:102610008B1D9B00E3185A60BD4602B0B0BDC0469A
:1026200000E100E000ED00E080B582B000AF78602E
:102630007B689B785BB2181CFFF772FFBD4602B047
:1026400080BDC04680B582B000AF78607B689A7864
:102650007B68DB78191C53B2181CFFF77BFF7B6883
:102660009B78DAB27B689B785BB21B0299B27B687D
:102670001B889BB20B439BB29BB2101C191CFEF72C
:10268000D5FF7B681B79002B03D07B68181CFFF7F4
:10269000CBFF0023181CBD4602B080BD80B582B0C0
:1026A00000AF78607B68DB68802252001A437B6849
:1026B000DA60BD4602B080BD80B582B000AF786000
:1026C0007B685B7B01225340DBB2002B0FD07B6821
:1026D0009A687B681B7B101C191CFFF723F87B682A
:1026E0009B68181CFFF7DAFF7B6801225A730023EE
:1026F000181CBD4602B080BD80B582B000AF7860C6
:1027000039607B6880229A583B681033191C01237A
:102710008B401A437B6880215A50BD4602B080BD71
:1027200080B582B000AF78600A1CBB1C1A807B6841
:102730001B6C084A1A40BB1C1B88134380221202E0
:102740001A437B681B6C1A437B681A64BD4602B04F
:1027500080BDC046FFF3FFFF80B582B000AF786058
:102760000A1CFB1C1A707B681B6C0A4A13408022EF
:1027700012021A437B681A647B681A6CFB1C1B7874
:102780001343802212021A437B681A64BD4602B0CA
:1027900080BDC046F07FFFFF80B584B000AF786099
:1027A0007B681B7E022B5ED17B68DA687B689B6846
:1027B000101C191CFFF780F90023FB6038E07B68D0
:1027C000FA689200D35819687B68FA689200D35867
:1027D0005B68081C191CFFF727FA7B68FA689200EF
:1027E000D3581B68181C0321FFF7C6FA7B68FA68E8
:1027F0009200D3581B7A01225340DBB2002B06D043
:102800007B68DA68FB68101C191CFFF775FF7B6892
:102810001A69FB68DBB2101C191CFFF7C9FA7B6848
:10282000FA689200D35800225A72FB680133FB60A9
:10283000FB68012BC3D97B681B69181C0021FFF7BB
:102840008BFF7B681B69181C0021FFF769FF7B6801
:102850005B7E002B04D07B68DB68181CFFF77EF9D9
:102860007B6800221A767B681B7E181CBD4604B06C
:1028700080BDC04680B582B000AF78607B681968C3
:102880007B681A7B7B680433081C111C1A1CFEF73A
:102890007BFC7B6819687B681A7B7B685B7B081C08
:1028A000111C1A1CFEF7E2FF0023181CBD4602B0E3
:1028B00080BDC04680B500AF034B034A926E012134
:1028C0008A439A66BD4680BD0000014080B584B051
:1028D00000AF78600F23FB1800221A700E23FB183C
:1028E00000221A700D23FB1800221A700C23FB180B
:1028F00000221A700B23FB1800221A707B681B78C9
:1029000001225340DBB2002B1BD00E23FA180D23FB
:10291000FB1812781B781343DAB20C23FB181B78D0
:102920001343D9B20F23FB180B22BA1812780A43AB
:102930001A700F23FB181B78002B02D17B68012231
:102940001A700F23FB181B78181CBD4604B080BDFD
:1029500090B585B000AF3B1C054A13CA13C312687B
:102960001A603B1C181CFEF7E7FCBD4605B090BD85
:102970007C30001080B582B000AF021CFB1D1A70C5
:10298000FB1D1B787F2B09D8064BFA1D1278111CF2
:102990001F220A40012191400A1C1A60BD4602B064
:1029A00080BDC04600E100E0B0B582B000AF021CBF
:1029B0003960FB1D1A70FB1D1B787F2B27D82D4C0F
:1029C000FB1D1B785BB29B082A49FA1D127852B294
:1029D0009208C03292005258F91D0978081C032150
:1029E0000140C900081CFF218140C94311403A68D9
:1029F0009201FF200240F81D0078051C03202840AA
:102A0000C00082400A43C0339B001A512EE01A4C8A
:102A1000FB1D1B781A1C0F231340083B9908164A0C
:102A2000FB1D1B78181C0F230340083B9B08063333
:102A30009B00D3185B68FA1D1278101C0322024019
:102A4000D200101CFF228240D2431A403B689B01F7
:102A5000FF200340F81D0078051C03202840C0001B
:102A600083401A438B1D9B00E3185A60BD4602B099
:102A7000B0BDC04600E100E000ED00E080B582B0EE
:102A800000AF78607A6881239B00D358802292003F
:102A90001A43111C7A6881239B00D150BD4602B0B5
:102AA00080BDC04680B584B000AFF860B9607A6080
:102AB000FB68BA6860329200D2587B680121994065
:102AC0000B1C1A43111CFB68BA6860329200D1508B
:102AD000BD4604B080BDC04680B584B000AFF8608C
:102AE000B9607A607B681968FB68BA68A0329200A6
:102AF000D150BD4604B080BD80B582B000AF7860D3
:102B000039607B683A68C0329200D3589BB2181C77
:102B1000BD4602B080BDC04690B585B000AF7860BC
:102B20007B681B7E022B00D09BE07B68DB680E225B
:102B3000BC18181CFFF730FE031C23707B68DB6891
:102B4000DA687B689B681B68101C191C0022002334
:102B5000FEF7DEFF7B68DB68DA687B685B68101C69
:102B6000191CFFF749F90F23FB1800221A7034E0F3
:102B70007B681B680F22BA1812789200D358BB608A
:102B8000BB689A68BB685B7B191CBB681B68101C20
:102B90001A1CFFF7D9F9BB689A68BB681B689B7859
:102BA0001B071B0FDBB2191CBB685B68101C1A1CCF
:102BB000FFF792FF7B68DB68DA68BB681B7B191C38
:102BC000BB685B7B101C1A1CFFF76CFF0F23FB1804
:102BD0001A780F23FB1801321A700F23FB181B7889
:102BE000032BC5D97B685B681B7A08221340DBB2D4
:102BF000002B20D07B681B69002B1CD07B681B69D5
:102C00001B68DAB27B681B695B6852B2101C191C26
:102C1000FFF7CAFE7B68DB68DA687B685B7E101CA6
:102C2000191CFEF7D5FF7B681B691B68DBB25BB222
:102C3000181CFFF79FFE7B685B69002B02D07B6846
:102C40005B6998477B689B7E002B05D07B68DB68BF
:102C5000DB68181CFFF712FF7B680E22BA18127887
:102C60001A767B681B7E181CBD4605B090BDC04619
:102C700090B585B000AF78607B689A687B681B6808
:102C80009B781B071B0FDBB20E217C18101C191C34
:102C9000FFF732FF031C23800E23FB181B88181C30
:102CA000BD4605B090BDC04690B583B000AFFB1DDA
:102CB00000221A70FC1D2C4B181CFFF707FE031C8A
:102CC0002370FB1D1B78002B06D1FC1D274B181C05
:102CD000FFF722FF031C2370FB1D1B78002B06D17E
:102CE000FC1D234B181CFFF775FB031C2370FB1DF9
:102CF0001B78002B06D1FC1D1E4B181CFFF7A2FCF5
:102D0000031C2370FB1D1B78002B06D1FC1D1A4BE6
:102D1000181CFFF7AFFD031C2370FB1D1B78002B55
:102D200006D1FC1D154B181CFFF7A4FD031C2370D6
:102D3000FB1D1B78002B06D1FC1D114B181CFFF747
:102D400049FB031C2370FB1D1B78002B06D1FC1DC7
:102D50000C4B181CFFF776FC031C2370FB1D1B7823
:102D6000181CBD4603B090BDB80600209406002094
:102D7000580500200C3000105C3000106C30001042
:102D8000880500201430001080B582B000AF021C0E
:102D9000FB1D1A70FB1D1B787F2B09D8064BFA1DF3
:102DA0001278111C1F220A40012191400A1C1A604E
:102DB000BD4602B080BDC04600E100E080B582B0F3
:102DC00000AF78607B689B785BB2181CFFF7DCFF74
:102DD000BD4602B080BDC04680B582B000AF78600D
:102DE0000A1CFB1C1A70FB1C1B7801229A407B6892
:102DF0005A60BD4602B080BD80B582B000AF786039
:102E00000A1CFB1C1A70FB1C1B78802252029A4081
:102E10007B685A60BD4602B080BDC04680B582B0B6
:102E200000AF78607B681A687B681B7B101C191CDC
:102E3000FFF7D2FFBD4602B080BDC04680B582B06C
:102E400000AF78607B681A687B681B7B101C191CBC
:102E5000FFF7D2FFBD4602B080BDC04680B500AFCF
:102E6000194B181CFFF7DAFA184B181CFFF7D6FF9E
:102E7000174B181CFFF7FCFE031C1A1C154B1A609D
:102E8000154B181CFFF7F4FE031C1A1C114B5A605B
:102E9000124B181CFFF7ECFE031C1A1C0D4B9A601A
:102EA0000F4B181CFFF7E4FE031C1A1C094BDA60D9
:102EB0000C4A084B101C191CFFF704F9034B181C93
:102EC000FFF7BCFFBD4680BD580500206C300010E8
:102ED00014060020D83200203406002054060020BA
:102EE00074060020CC06002090B583B000AFFC1D16
:102EF000FFF7DAFE031C2370FB1D1B78002B00D0AC
:102F0000FEE7064B181CFFF78DF9054B181CFFF761
:102F100055FF024B181C00F005F8FEE7CC06002018
:102F20000C30001090B583B000AF7860134B181CC4
:102F3000FFF774FF124B181CFFF7B4F97B681148B8
:102F40007A6811491B18521813CA13C312681A6001
:102F50000B4B181CFFF7A6F97B680C487A680A49E6
:102F60001B18521813CA13C312681A60034B181C9B
:102F7000FFF764FFBD4603B090BDC0465C30001053
:102F800088130000EC2B0000CC2B0000FC2B000071
:102F90000E4B70B500251E1C0D4CE41AA410A54262
:102FA00004D0AB00F35898470135F8E7FFF73AF83B
:102FB000084B00251E1C084CE41AA410A54204D09E
:102FC000AB00F35898470135F8E770BDB006002014
:102FD000B0060020B0060020B00600200618001041
:102FE00006180010101800101018001032180010E9
:102FF0003218001032180010321800101A18001081
:1030000026180010000403480008034801001503B7
:1030100000000000020000020000000000000000AC
:1030200000000000000000000000000000000000A0
:103030000000000000000000000000000000000090
:10304000000000000000000001000000000000007F
:103050000000000000000000000000000004044028
:103060008000000000000100030000000004044094
:10307000000000000000000002000000000001004D
:10308000000030030000010000000000010000000B
:0C3090000500000000000000100000001F
:10309C002C48004700000000000000000000000069
:1030AC000000000000000000000000000000000014
:1030BC00254800470000000000000000234800479E
:1030CC00234800472348004723480047234800472C
:1030DC00234800472348004723480047234800471C
:1030EC00234800472348004723480047234800470C
:1030FC0023480047234800472348004723480047FC
:10310C0023480047234800472348004723480047EB
:10311C0023480047234800472348004723480047DB
:10312C0023480047234800472348004723480047CB
:10313C0023480047234800472348004723480047BB
:10314C00234800479D1000109D1000109D1000108A
:10315C009D1000109D1000109D1000109D1000106F
:10316C009D1000109D1000109D1000109D1000105F
:10317C009D1000109D1000109D1000109D1000104F
:10318C009D1000109D1000109D1000109D1000103F
:10319C009D1000109D1000109D1000109D1000102F
:1031AC009D1000109D1000105D2E00109D10001041
:1031BC009D1000109D1000109D1000109D1000100F
:1031CC009D1000109D1000109D1000109D100010FF
:0431DC009D10001032
:1031E0000000000001000000787C010000D0548540
:1031F0000A00000050000000B00500200042044812
:10320000010000005005002000009FB601010000F1
:10321000000000000C00000000C2EB0B00D0548541
:103220000A00000050000000C00500200002044811
:10323000010000008005002000001AB70101000015
:1032400000D8B8050200000000400448000000005B
:1032500000D8B8050100000000000448000000008C
:10326000000403481C30001001020000000803485D
:103270003030001001020000D0050020DC050020E5
:1032800044300010000003480040034800000000E4
:103290000201000002002A000000000000000000FF
:1032A00000FF000004060020BC06002000080348C0
:1032B00001050000020022000000000000000000E4
:1032C0000005000024060020C0060020000403487A
:1032D00000000000020027000000000000000000C5
:1032E0000006000044060020C40600200004034835
:1032F00000010000020029000000000000000000A2
:1033000000FF000064060020C806002000040348F7
:103310000007000014060020340600205406002098
:103320007406002084060020903000108C300010BD
:10333000E805002000000000000000000204010079
:040000051000101DBA
:00000001FF
